:400000000000002011000000151500001515000008B5044B1A6803F53F5302331A6001F081FA00BFFA46004010B5054C237833B9044B13B10448AFF300800123237010BD27
:400040009081FF1F00000000E01C0000084B10B51BB108490848AFF300800848036803B910BD074B002BFBD0BDE81040184700BF000000009481FF1FE01C0000C880FF1F7A
:400080000000000000B583B0054B0093054B064A0649074801F02EF803B05DF804FB00BF00000020C081FF1FCC80FF1FB981FF1FB881FF1F08B503480146013001F09CF8BD
:4000C00008BD00BFAC81FF1F2DE9F04FADF5805D83B0F94801F090FBF84801F053FD01F01FFBF74C20704FF4804341F6FF720021012001F00FFDF34D287020780523024641
:40010000802101F027FB46F27F420021207801F035FB2178287801F0D5FA0121287801F077FA01F013FC01F063FC01F0E5FC01F0A1FC01F07BFB01F0A5FB01F0B1FB62B6BE
:400140004FF48052002102A801F0C1FDF0238DF8083090218DF809108DF80A108DF80B108DF80C3020248DF80D404FF0600E8DF80EE08DF80F408DF8104070228DF81120AA
:400180008DF8123010228DF813208DF8143080208DF815008DF816308DF817308DF818208DF819308DF81A208DF81B308DF81C108DF81D108DF81E308DF81F208DF820201B
:4001C0008DF821308DF822008DF823308DF824208DF825308DF826308DF827008DF828308DF829108DF82A308DF82B308DF82C208DF82D4040248DF82E408DF82F408DF893
:4002000030308DF831108DF832308DF833108DF834308DF835308DF836108DF837308DF838208DF839308DF83A308DF83B108DF83C308DF83D108DF83E10E0248DF83F4037
:400240008DF840108DF841408DF842108DF843408DF844308DF845008DF846008DF847008DF848308DF849408DF84A108DF84B108DF84C108DF84D408DF84E308DF84F00D6
:400280008DF850308DF851008DF852308DF853308DF854008DF855308DF856008DF857008DF8094263218DF80A1264258DF80C5201248DF80D4265208DF80E02EE278DF8AC
:4002C0000F724FF035068DF810628DF8117213268DF812628DF813228DF814128DF816524FF0020C8DF817C28DF818028DF819724FF0660C8DF81AC28DF81B724FF0550866
:400300008DF81C828DF81DE28DF81E628DF81F228DF820128DF822524FF0030E8DF823E28DF824028DF825724FF0450E8DF826E24FF0FD0E8DF827E28DF828628DF8292224
:400340008DF82A128DF82C524FF0040E8DF82DE28DF82E028DF82F724FF0750E8DF830E28DF831424FF0350E8DF832E24FF0EF098DF833928DF834628DF835228DF8361248
:400380008DF838524FF0050E8DF839E24FF06F088DF83A828DF83B428DF83C028DF83D728DF83EC28DF83F924FF0850E8DF840E28DF841024FF03F0B8DF842B28DF8446203
:4003C0008DF845228DF846128DF848524FF0060A8DF849A28DF84A828DF84C028DF84D928DF84EC28DF84F728DF850E28DF851028DF852B28DF853428DF854628DF855228A
:400400008DF856828DF858128DF85A524FF0070A8DF85BA28DF85C028DF85D728DF85EC28DF85F928DF860E24FF0670A8DF861A28DF862B28DF863428DF864628DF8652202
:400440008DF866128DF868524FF0080A8DF869A28DF86A828DF86B428DF86C028DF86D928DF86EC28DF86F728DF870E24FF067078DF871728DF872B28DF874628DF875221E
:400480008DF876128DF8785209278DF879728DF87A028DF87B328DF87CC20F278DF87D728DF87EE24FF061098DF87F924FF035098DF8809208E000BFB50000008500000087
:4004C000B981FF1FB881FF1F4FF0FF098DF881928DF882628DF883228DF884128DF885428DF886528DF888028DF889328DF88AC28DF88B728DF88CE24FF0620A8DF88DA223
:400500004FF0350A8DF88EA28DF890628DF891228DF892128DF893428DF894528DF895428DF896028DF897328DF898C28DF899728DF89AE28DF89B128DF89CA28DF89D920B
:400540008DF89E628DF89F228DF8A0828DF8A2128DF8A3428DF8A4524FF002038DF8A5328DF8A60281238DF8A7328DF8A8E20E238DF8A9328DF8AAB28DF8AB428DF8AC6296
:400580008DF8AD228DF8AE128DF8AF428DF8B0524FF003038DF8B1328DF8B2828DF8B34284468DF8B40247238DF8B53274468DF8B6E24FF00E038DF8B73258468DF8B8B2C8
:4005C00032468DF8BA624FF010088DF8BB828B468DF8BC124FF0010E8DF8BDE229468DF8BE5204238DF8BF326F258DF8C0528DF8C2C28DF8C3E28DF8C44206238DF8C53204
:400600008DF8C6028DF8C7E28DF8C8628DF8C9828DF8CAB28DF8CBE28DF8CC124FF005068DF8CD628DF8CE528DF8CFE28DF8D0C24FF002058DF8D1528DF8D2428DF8D33229
:400640008DF8D4028DF8D6228DF8D7828DF8D8B28DF8D9E28DF8DA128DF8DB3260238DF8DC3215268DF8DD624FF061008DF8DE024FF078008DF8DF02A3258DF8E052D020CC
:400680008DF8E102F1248DF8E24255278DF8E3728DF8E4428DF8E5C230248DF8E6428DF8E7628DF8E8228DF8E98231278DF8EA724FF078078DF8EB728DF8EC228DF8ED8239
:4006C0008DF8EEB28DF8EFE28DF8F01207218DF8F1128DF8F2328A218DF8F3128DF8F4528DF8F502F0218DF8F61233278DF8F7728DF8F8528DF8F9028DF8FA128DF8FBC21B
:400700008DF8FC428DF8FDE28DF8FE228DF8FF828DF800338DF801E38DF802131E278DF803738DF804138DF805C38DF806434FF003098DF807938DF808238DF809838DF885
:400740000A338DF80BE38DF80C138DF80D738DF80E138DF80FC38DF810434FF0080C8DF811C38DF812238DF813838DF814234FF0320E8DF815E38DF816234FF00E0E8DF874
:4007800017E38DF818534FF02A0E8DF819E38DF81A338DF81B234FF0610E8DF81CE34FF0090E8DF81DE38DF81E034FF0180E8DF81FE34FF0F3088DF820834FF029098DF8CB
:4007C00021938DF822334FF022098DF823934FF061098DF824934FF00B098DF825938DF826038DF827636FF00B0A8DF828A34FF0290A8DF829A38DF82A334FF0280A8DF835
:400800002BA34FF0610A8DF82CA38DF82D938DF82E038DF82F638DF830234FF00E0A8DF831A34FF0FF0A8DF832A38DF833138DF834138DF835A38DF836138DF837138DF89A
:4008400038138DF839A38DF83A534FF0580A8DF83BA38DF83C338DF83D634FF061068DF83E638DF83F938DF840B38DF841C38DF842038DF843E370268DF844638DF845C3B5
:400880008DF846838DF847738DF848434FF02D098DF849938DF84A234FF03A098DF84B938DF84C538DF84D638DF84E334FF002058DF84F534FF061058DF850538DF851E39C
:4008C0008DF852B38DF853C38DF854038DF855E38DF856634FF005008DF857038DF858838DF859738DF85A433E208DF85B038DF85C234C208DF85D038DF85E234FF00E021B
:400900008DF85F238DF8601388228DF861238DF862238DF863138DF864238DF865238DF866238DF867134FF078028DF8682384228DF869238DF86A238DF86B238DF86C2321
:400940008DF86D238DF86E234FF078018DF86F138DF87023C4218DF87113A4218DF8721394218DF873138C218DF874138DF875238DF876238DF87723C0208DF87803A02243
:400980008DF879238DF87A238DF87B038DF87C238DF87D238DF87E038DF882238DF88323E0258DF8845320248DF885438DF886438DF887538DF890038DF891238DF8922323
:4009C0008DF893038DF894238DF895238DF896038DF89A338DF89B238DF89C0380218DF89D138DF89E338DF8A2338DF8A31340268DF8A4638DF8A5438DF8A6038DF8A813FE
:400A00008DF8A9138DF8AA038DF8AB138DF8AC138DF8AD138DF8AE338DF8B0538DF8B1138DF8B2138DF8B3138DF8B4138DF8B5138DF8B6538DF8BA638DF8BB238DF8BC231B
:400A40008DF8BD238DF8BE638DF8C0438DF8C1438DF8C2438DF8C3338DF8C4238DF8C5238DF8C6338DF8CA338DF8CB238DF8CC038DF8CD1360238DF8CE338DF8D3338DF837
:400A8000D4638DF8D56350238DF8D633012000F0C1FE094A094B009313460132084902A800F010F8002000F0B5FE00200DF5805D03B0BDE8F08F00BFAC81FF1FCC80FF1FAB
:400AC000C081FF1F2DE9F04F99B007468A460B920A93202200210CA801F0F9F8002307E00AEBC30200200021C2E900010133DBB21F2BF5D9002308934FF4007B069355466F
:400B0000BA461AF80B600AEB0B035B7843EA062636B2B3B21A0BC3F30324F6B206F00F0CC3F30B01C3F303130F2A11D8DFE812F01300A1023D004E005C006A0096009D004E
:400B4000A7008000480137004C01BE01E201070200230122BBE2002C40F08F82E02E0AD0EE2E0ED08CE205EBC30200200021C2E90001013300E000231F2BF4DD00231A46BF
:400B8000A5E2089B13B1013BDBB2089318AA089B02EB430333F830BC0123002297E29DF850B08B440123002291E218A8089A00EB420323F830BC13460F2A00F06482013323
:400BC000DBB208938B460123002280E218AB1C4414F8103C9E4240F05A820BF1020B1FFA8BFB00231A4672E218AB1C4414F8103C9E4200F04F820BF1020B1FFA8BFB002387
:400C00001A4664E2BCF1000F40F0478218AA144414F8102C18A90B4413F8103C9A4240F03F820BF1020B1FFA8BFB00231A464EE2BCF1000F40F0378218AA144414F8102C61
:400C400018A90B4413F8103C9A4200F02F820BF1020B1FFA8BFB00231A4638E218AB1C4404F8106C00231A4631E218AB1C4414F8103C1E4404F8106C00231A4627E2BCF18C
:400C80000E0F00F21682DFE81CF00F0019002700350043005100670077001402140214021402140214028C0018AA134413F8103C144404F8103C00231A4608E218AA13441E
:400CC00013F8102C18AB1C4414F8103C134304F8103C00231A46FAE118AA134413F8102C18AB1C4414F8103C134004F8103C00231A46ECE118AA134413F8102C18AB1C44ED
:400D000014F8103C534004F8103C00231A46DEE118AA134413F8102C18AB1C4414F8103C134404F8103C00231A46D0E118AA144414F8102C18A90B4413F8101C531A04F87E
:400D4000103CC3F3072383F0010303F001038DF85F3000231A46BAE118AB1C4414F8103C03F001038DF85F3014F8103C5B0804F8103C00231A46AAE118AA144414F8101CBE
:400D8000134413F8102C531A04F8103CC3F3072383F0010303F001038DF85F3000231A4695E118AB1C4414F8103CDB098DF85F3014F8103C5B0004F8103C00231A4686E12D
:400DC000069100231A4682E100F04AFD18AB1C44304004F8100C00231A4678E118A9394411F8104C382C15D806991144585CC4F13804A4F12005C4F120014FF0000900FA59
:400E000005F549EA050920FA01F149EA010900FA04F821E006991144585CA4F1380120FA01F5049500250595C4F17804A4F12005C4F120014FF0000B00FA05F54BEA050B15
:400E400020FA01F14BEA010B00FA04FADDE9048948EA0A0849EA0B0918A90798014411F8101C1144A04811EA000E05D50EF1FF3E6EF01F0E0EF1010E06EBCE0EDEE90001EB
:400E8000CDE9020100EA080401EA0905DDE9000120432943CDE90001DDE9020180EA080081EA0901CEE9000101320CE0002200200021CDE90001CDF824B027460793534663
:400EC000DDE902AB2E46624588DBCDE902ABDDF824B09A463546DDE900120B46134314BF012300238DF85F300123229A137000231A46ECE09E2E02D0A12E10D0DCE018AB6F
:400F00001C4414F8100C00F08DF9002800F0D7800BF1020B1FFA8BFB00231A46D7E018AB1C4414F8100C00F07DF9002840F0CA800BF1020B1FFA8BFB00231A46C7E01E2EF1
:400F40003AD00AD80A2E1CD002D8072E10D0BCE0152E1FD0182E26D0B7E0332E43D002D8292E34D0B1E0552E6BD0652E7AD0ACE00A9B1B7818AA144404F8103C00231A4653
:400F8000A5E000F06FF918AB1C4404F8100C00231A469CE018AB1C4414F8103C0A9A137000231A4693E018AB1C4414F8103C0B9A137000231A468AE018AB1C4414F8103C77
:400FC000069A1A4493B2069300231A467FE018AB1C4414F8103C03F00F0303EB8303069300231A4673E018AB1C4414F8101C3F4AA2FB01323E4B5209069F0AF807207C1CD2
:40100000A3FB0102D208D0B2A3FB0063DB0803EB83035E00801B0AF80400BB1C02EB82025000091A0AF8031000231A464FE0C21818A9194411F8101C0AF802100133DBB2D8
:4010400001E000230698A342F1D900231A463EE0C2181AF8021018AA1A4402F8101C0133DBB201E000230698A342F1D900231A462DE08B460123002229E00023012226E02C
:401080000023012223E08B46012300221FE000231A461CE000231A4619E00023012216E000231A4613E00023012210E000231A460DE0002301220AE00023012207E00023FE
:4010C0001A4604E000231A4601E0002301223AB9002B7FF416AD0BF1020B1FFA8BFB10E519B0BDE8F08F00BF1F0000801F85EB51CDCCCCCC2DE9F84F81468A4690461F4686
:401100000A9E00F03FFCC0F54970013080B210F0070F6ED1B0F5407F0DD29AF80020D20002F1804202F5F042C30806EBC3139BB29380BDE8F88FB0F5407F5AD198F80030A4
:4011400013F0FF0F55D099F8000000F07DFA98F8003013F0FF0F3FD146E0A3F10802D2B21F2A1ED803F10052083A07EBC202D2E90001CEF13F024FF0010CA2F1200BC2F122
:40118000200A0CFA0BF52CFA0AFA45EA0A050CFA02F42040294050EA010214BF6046002000E000201A0206EB020C4FEA4E010CF81E008032324402F81E0001310CF80100C0
:4011C00050540133DBB200E000232F2BC5D90EF1010E5FFA8EFE01E04FF0000EBEF13F0FF2D9002388F80030012199F8000000F00FFABDE8F88F00BF08B503780BB1013B0C
:40120000DBB203700B780BB1013BDBB20B7003781BB1012000F052FB08BD002000F04EFB08BD00BF70B50E4D2C5CC4F3810604F0030405EB8404236901209847012000F08E
:40124000ABFA05EB86052B6A9847051C18BF0125236900209847012000F09EFA284670BDD080FF1F70B5002511E004EB85030A4A134493F830603046FFF7D4FF50B901348A
:40128000E4B200E00024032CEFD90135EDB2032DF8D9E8E7304670BDD080FF1FFEE700BFF0B40022174611E050F82760F3B226F0FF0608E001EB420511F812406D78A5554B
:4012C0000132013BDBB2002BF4D10137132FEBD9F0BC7047064B1B78DBB203F00701054A11701B09013213704422034B1A707047CF0100496E5800407658004008B50A461C
:40130000002100F0E4FC08BD38B5394B1D78EDB20721384A118018210232117040F22121023211801D2102321170022102F27A22117008214FF040221170F32102F20A323A
:40134000117003221A708422A3F28F331A700522013B1A70284C04E04FF4F07000F070FC013C24B1254B1B7813F0200FF4D0204B1D700222A3F593631A70214B1B78DBB2A7
:40138000204A137040F626521F4B1A8041F25122023B1A80002419250CE01C4B1B7803F0010343EA440404F003044FF4F07000F047FC013D0DB1032CEFD115B90320FFF7BA
:4013C0006DFF134B4FF480721A8007221A70002210490A704820023108701A700222033B1A700D4A137843F00303137038BD00BF9846004080400040A08601000843004001
:401400000B010049A146004022420040254200400440004006400040A243004008B500F04BFC08BD38B572B62B4A137843F00403137000240CE0294D630019194A0011466F
:401440002A44084691882858FFF758FF0134E4B2082CF0D922494FF09040FFF721FF04212048FFF74BFF204A137843F0020313701032137843F0020313701C4C237843F037
:4014800040032370A2F58632513A137843F010031370082216491748FFF7C0FF082216491648FFF7BBFF082215491648FFF7B6FF154A137843F008031370144D61232B7038
:4014C000FFF722FF01232B70FFF704FF0E2221460F48FFF7A3FF38BDE8460040E41C0000500000480076004003500140A0430040C002004812510040C802004822510040BD
:40150000D0020048325100402243004000480040B043004008B500F0A3FB03680C2B00D1FEE7FEE708B5104E104D16E029686B68AC68002204E051F8040B43F8040B043222
:40154000A242F8D1E868002203E0002143F8041B04328242F9D11035013E002EE6D100F085FBFEF7B1FDFEE701000000401D000008B5114A114B1A60114A136843F40073FD
:40158000136000230AE0032B03D80E4A52F8231000E00D490D4A42F8231001332F2BF2D90B4B1A780B4B1A70084A0B4B1A60FFF739FF00F013F808BD0004FA050CED00E0C6
:4015C00014ED00E000000000151500000080FF1FBC760040C080FF1F08ED00E00B4A7F2313708021517007E0DA0002F1804202F5F042013BDBB21370002BF5D1DB0003F116
:40160000804303F5F04300221A7070471081FF1F172815D831B103010A495A5C42F020025A5405E0030107495A5C02F0DF025A540001044A835C43F001038354002070470A
:40164000012070471070004017280BD80001064BC25C02F0FE02C254C25C02F0DF02C25400207047012070471070004017280BD80001064A835C03F0F103490001F00E0140
:401680001943815400207047012070471070004041F6FF73994201D14FF4005141F6FF739A4201D14FF40052172808D8C00000F1804000F5EC408180C280002070470120C8
:4016C000704700BF172805D8034B03EB0010417200207047012070471070004017281BD810B4C00000F1804404F5EC44D201D2B201F07F01114321709DF804201201D2B259
:4017000003F00F03134363709DF8083003F00F03A3700020E07001E00120704710BC704710B500F095FA0A4B5B78182B0BD9084A1478013B5370E30003F1804303F5F043B5
:401740001B78137000E0FF2400F086FA204610BD1081FF1F10F0800F0CD111F4704F0BD1C00000F1804000F5F04001808270C37000207047012070470120704710F0800FA0
:4017800008D1C00000F1804000F5F0408180C280002070470120704710B5044605E0084B186800F04DFAA4F50044B4F5004FF6D8034B586800FB04F000F042FA10BD00BF72
:4017C0001881FF1F014B1B685864704708ED00E04001C0B2014B1870704700BF01E400E00222014B1A60704700E100E00222014B1A60704780E100E010B50446FFF7F6FF1B
:401800002046FFF7DFFF0720FFF7E2FFFFF7E8FF10BD00BF044A137803F0FD03400000F0020018431070704720510040024A137843F00103137070477B64004010B5044650
:4018400000F006FA044A137843F00303137000F003FA024B1C7010BD9B6400404B640040014B1878704700BF0B640040014B1870704700BF0B640040014B1870704700BFDE
:401880002B64004008B5B820FFF7F6FFFF20FFF7EDFFFF20FFF7D2FFFFF7C8FF08BD00BF08B5054B1B7823B9FFF7ECFF0122024B1A70FFF7BBFF08BDAE81FF1F044A1378BF
:4018C00003F0FE0300F0010018431070704700BF20510040024A137843F08003137070477E640040014B1870704700BF0E640040014B1870704700BF4E640040014B18700C
:40190000704700BF2E640040014B1870704700BF3E64004008B50C4A137803F0C00343F00A0313702032137843F001031370A720FFF7D8FFA720FFF7DBFF0120FFF7DEFF66
:401940002820FFF7E1FF08BD7E64004008B5054B1B7823B9FFF7DEFF0122024B1A70FFF7B9FF08BDAF81FF1F024A137843F08003137070477D640040014B1880704700BF16
:4019800018680040024B1B78024B188880B270471C640040B8680040014B1880704700BF98680040014B1880704700BF5868004008B50E4A137803F0C00343F0210313706D
:4019C0001F32137843F0010313700132137843F00103137040F22530FFF7CEFF40F22530FFF7DAFF2620FFF7DDFF08BD7D64004008B5054B1B7823B9FFF7DAFF0122024B80
:401A00001A70FFF7B1FF08BDB081FF1F024A137843F08003137070477A640040014B1870704700BF0A640040014B1870704700BF4A640040014B1870704700BF2A64004035
:401A400008B50B4A137803F0C00343F0080313702032137843F0010313700620FFF7DEFF0620FFF7E1FF0620FFF7E4FF08BD00BF7A64004008B5054B1B7823B9FFF7E0FFD4
:401A80000122024B1A70FFF7C1FF08BDB181FF1F024A137843F08003137070477C640040014B1870704700BF0F640040014B1870704700BF4F640040014B1870704700BFF6
:401AC0002F64004008B50B4A137803F0C00343F0080313702332137843F0010313701120FFF7DEFF1120FFF7E1FF1120FFF7E4FF08BD00BF7C64004008B5054B1B7823B930
:401B0000FFF7E0FF0122024B1A70FFF7C1FF08BDB281FF1FF0B583B016461F460B4D00242C700194009423460A4601462046FFF7D5FD3A4631462878FFF7AAFD022128780B
:401B4000FFF794FD287803B0F0BD00BF2881FF1F014B1B681864704708ED00E04001C0B2014B1870704700BF00E400E00122014B1A60704700E100E00122014B1A607047BF
:401B800080E100E010B50446FFF7F6FF2046FFF7DFFF0620FFF7E2FFFFF7E8FF10BD00BF014B1878C009704731510040024B187800F00100704700BF31510040024B187849
:401BC000C0F3C000704700BF31510040024B1878C0F34000704700BF31510040044A137803F0FB03800000F0040018431070704730510040044A137803F0EF03000100F0F2
:401C0000100018431070704730510040044A137803F0DF03400100F0200018431070704730510040044A137803F0BF03800100F0400018431070704730510040000000005D
:401C40000230800803D000BF01380046FCD17047EFF3108072B6704780F31088704700BF014B1868704700BF8C81FF1F0E4B70B51E460E4C0025E41AA410A54204D056F8BA
:401C8000253098470135F8E700F048F8084B094C1E46E41AA4100025A54204D056F8253098470135F8E770BD281D0000281D0000281D0000301D000010B5431E0A449142E6
:401CC00004D011F8014B03F8014FF8E710BD03460244934202D003F8011BFAE77047000000000000005100401000405100403000C05100401000F05100401000000001400A
:401D0000001000140140000800400140000A004C014000020050014020004300F8B500BFF8BC08BC9E4670474D00000071150000F8B500BFF8BC08BC9E467047290000002E
:401D4000501D0000C880FF1FC80000003001000000000000010000000D00010204050608090A0C0E03070B0FDD1B0000F51B00000D1C0000251C0000A11B0000AD1B000028
:401D8000CD1B0000BD1B00000102030C0405060D0708090E0A000B0F7F8000000100000000803B7F77FE0000420000004900E203FF000000000000000000000000000000CD
:401DC00000000000000000000000000000000000000000001A1D000000000000000000000000000000000000000000000000000000000000000000000000000000000000AC
:401E000000000000000000000000000000000000000000002C81FF1F00000000000000000000000000000000000000000000000000000000000000000000000000000000D7
:401E40000000000000000000000000000000000000000000000000000000000000000000000000000000000000000000000000000000000000000000000000000000000062
:401E80000000000000000000000000000000000000000000000000000000000000000000000000000000000000000000000000000000000000000000000000000000000022
:401EC00000000000000000000000000000000000000000000000000000000000000000000000000000000000000000000000000000000000000000000000000000000000E2
:401F000000000000000000000000000000000000000000000000000000000000000000000000000000000000000000000000000000000000000000000000000000000000A1
:020000040003F7
:0200000480007A
:40000000025200400101014001090140350A01401B0B0140340C0140190D01404D0E01402B0F0140054001400141014001420140014301400144014008450140014601400A
:400040000247014003480140055001400251014010101118E280B204060107020E020F011303150225012601320234013503402041064702481149FF4AFF4BFF4DA04F0430
:4000800050185280580859085A085B085F01604062C06440654066C068C06AC06CC06EC0C004C9FFCAFFCBFFCC02CEF0D201DA0CDB04DD99DF01E248E3A1E8F0EAF0ECF06E
:4000C000EEF00044102019081A042004290830083101384440044701482850086F0371017B017F029040A301C005C404CA02CC03CE0AD084D204DE184060410249FF4AFFF7
:400100004BFF4DA04F04501852805A085B045F01604062C06440654066C068C06AC06CC06EC086019202A601B001B402C020C106C501C702C811C9FFCAFFCBFFCDAFCE0F11
:40014000CF04D018D280D808DA08DB08DF01E040E2C0E440E540E6C0E8C0EAC0ECC0EEC000040902102018441B104004460448284F2050085204710276807B037F02944073
:400180009E80A301B010C004C208C404D024D224DE180A030B010C04100413021E0422012301260230033204330237013E0440304106450146054702481749FF4AFF4BFFC1
:4001C0004DA04F0450185280580459045A045B045F01604062C06440654066C068C06AC06CC06EC083068D089301970899049A01AA01AF0CB201B30CB502B701C020C1055C
:40020000C602C805C9FFCAFFCBFFCDA0CF04D018D804D904DA04DB04DF01E040E2C0E440E540E6C0E8C0EAC0ECC0EEC0005009400A800F0810A0172019081B011C20201029
:40024000224023012540262827202B802E8031013628370138103F814010472048A84F885008538057406F01710185088B01C003C249C44CCA11CCE1CE94D022D214E28098
:40028000E40837803D108910CC20CE209F809F809F808680528264049804A280B004D405D801EC01A602B202EC0423809F80C840000101010C010D010E01000D10020000C9
:4002C000000B0B0000000000001F1F001C0000008BFF7400000000000000000000000000000000000000000000000000000000000000000000000000000000000000000090
:4003000000000000000000000000000000000000000000000000000000000000000000000000000000000000000000000000000000000000000000000000000000000000BD
:40034000000000000000000000000000000000000000000000000000000000000000000000000000000000000000000000000000000000000000000000000000000000007D
:40038000000000000000000000000000000000000000000000000000000000000000000000000000000000000000000000000000000000000000000000000000000000003D
:4003C00000000000000000000000000000000000000000000000000000000000000000000000000000000000000000000000000000000000000000000000000000000000FD
:0200000490006A
:0400000000004005B7
:0200000490105A
:04000000BC90ACAF55
:0200000490303A
:020000001D8859
:0200000490402A
:4000000000000000000000000000000000000000000000000000000000000000000000000000000000000000000000000000000000000000000000000000000000000000C0
:400040000000000000000000000000000000000000000000000000000000000000000000000000000000000000000000000000000000000000000000000000000000000080
:400080000000000000000000000000000000000000000000000000000000000000000000000000000000000000000000000000000000000000000000000000000000000040
:4000C0000000000000000000000000000000000000000000000000000000000000000000000000000000000000000000000000000000000000000000000000000000000000
:0200000490501A
:0C00000000012E16106900012E232DF1C6
:00000001FF