:4000000000800020110000006D2600006D260000034A08B51268034B1A6002F02FFB00BFFA460040BC76004010B5054C237833B9044B13B10448AFF300800123237010BD2E
:4000400090B1FF1F00000000B82D0000084B10B51BB108490848AFF300800848036803B910BD074B002BFBD0BDE81040184700BF0000000094B1FF1FB82D0000C880FF1F48
:400080000000000000B5064A83B00092054B064A0649074802F0C8F803B05DF804FB00BF9081FF1FC0B1FF1FCC80FF1FB9B1FF1FB8B1FF1F0149481C02F03CB9ACB1FF1F79
:4000C0002DE9F04FADF5805D85B0F74802F042FCF64802F0C9FD02F0D7FBF54C4FF48043207041F6FF720021012002F09FFDF14D2278052328708021104602F0E1FB46F2EA
:400100007F422078002102F0F3FB2178287802F08BFB0121287802F02DFB02F0A7FC02F0DDFC02F051FD02F01DFD02F057FC02F033FC02F05BFC62B64FF0600504A84FF4D2
:400140008052002102F030FEFC23029304AB9D714FF070055D724FF01005FE2220274FF0900880210392F0221A701A719A721A739A73DA735A74DA749A755A76DA765A777A
:400180009A7783F8018083F8028083F8038083F8148083F815805F71DF711F72DD721D749D74DD751D761D775973997683F8245083F830504FF0400583F8265083F82750D1
:4001C0006FF01F05D97783F8202083F8218083F8222083F8232083F8257083F8282083F8298083F82A2083F82B8083F82C2083F82D2083F82E8083F82F2083F8312083F82F
:40020000322083F8338083F8342083F8358083F8368083F8388083F83A8083F83C2083F83D1083F83E1083F83F1083F8402083F8375083F8395083F83B5083F8415083F806
:4002400045504FF0500583F803524FF0560583F80A524FF0250583F801524FF0530583F8025283F80F524FF0410583F8045283F80B524FF0430583F805524FF0450583F810
:40028000065283F80D524FF0490583F808524FF04E0583F809524FF0440583F80C524FF05205122083F8428083F8438083F8448083F8462083F8471083F8482083F84910F5
:4002C00083F84A2083F84B2083F84C1083F84D2083F84E1083F84F1083F8077283F8107283F8000283F80E524FF0300583F811524FF02E0583F812524FF0390583F8135278
:400300004FF0310583F814524FF0420583F816524FF0790583F817524FF0440583F819524FF0610583F81A524FF0760583F81B524FF0640583F81D524FF0570583F81F52A8
:400340004FF0490583F820524FF04E0583F821524FF0540583F822524FF0450583F823524FF0520583F824524FF0600583F825524FF0610583F827524FF0620583F8295231
:400380006FF05C0583F82B526FF0220583F82C526FF02F0583F82D524FF0180583F82E524FF0710583F82F526FF00D0583F831524FF01E0583F832524FF031054FF00809DC
:4003C0004FF0690A83F8157283F8187283F81CA283F81E7283F82A9283F8309283F833524FF04B0583F850524FF02D0583F836524FF0700583F837524FF0610583F8395209
:400400004FF0300583F83B524FF0400583F83C524FF02D0583F83E524FF0050583F840524FF06C0583F841524FF0150583F842524FF06E0583F843526FF06E0583F8465214
:400440004FF0600583F847524FF00A0583F848524FF0150583F84A524FF0070583F84C524FF0300583F84D526FF06E0583F852524FF07E0583F853524FF0450583F8565280
:400480004FF0660523244FF0010B83F8347283F8350283F8389283F83D0283F83FA283F8454283F8492207E0B500000085000000B9B1FF1FB8B1FF1F83F84B2283F84F0206
:4004C00083F8514283F854B283F8550283F857524FF0680583F859524FF01C0583F85A524FF06A0583F85D524FF0040583F85E524FF06B0583F85F524FF00A0583F860527D
:400500004FF06C0583F861524FF0040583F862524FF06D0583F863524FF03C0583F864524FF06E0583F865524FF00F0583F866526FF01F0583F868526FF0020583F86D5212
:400540004FF0150583F86E524FF0600583F86F524FF0040583F870526FF01F0583F871526FF0610583F872524FF07D0583F874524FF0380583F877524FF0780583F87952F9
:400580004FF0FF3583F87A524FF060054FF0510E4FF0750C83F85BA283F8694283F86AC283F86B4283F86CE283F8730283F8754283F876C283F87B4283F87CC283F87D5239
:4005C0004FF0390583F886526FF01F0583F87F526FF0610583F880526FF0740583F882524FF0380583F885524FF0780583F887524FF0360583F88B526FF0600583F88E5254
:400600004FF0600583F88F524FF0050583F890526FF01F0583F891526FF0610583F892526FF0160583F894524FF0660583F895524FF0650583F897524FF01B0583F8985257
:400640006FF07B0583F899526FF05C0583F89B526FF0260583F89C526FF02B0583F89D526FF05C05062683F87E6283F8810283F8834283F884C283F888B283F8894283F865
:400680008AC283F88D0283F8930283F896B283F89A1283F89EE283F89F526FF0260583F8A0524FF0350583F8A5526FF02B0583F8A1524FF0FF3583F8A45283F8A6526FF0EE
:4006C000520583F8A8524FF0660583F8A9526FF0160583F8AC526FF02B0583F8AD524FF03F0583F8AF526FF0160583F8B2526FF02B0583F8B3524FF0660583F8B5526FF080
:400700007C0583F8B7524FF0400583F8B8524FF0730583F8B9524FF0030583F8BA526FF07C0583F8BB526FF04A0583F8BC524FF0620583F8BD526FF0070583F8BE526FF07C
:400740007C0583F8BF524FF0220583F8C0524FF0620583F8A2E283F8A3C283F8A70283F8AB0283F8AEE283F8B0B283F8B10283F8B4E283F8C1524FF0330583F8C3526FF08D
:40078000360583F8C6524FF07D0583F8C8526FF07D0583F8C9524FF0430583F8CB526FF02C0583F8CE524FF0330583F8CF524FF0100583F8D0526FF02A0583F8D2524FF0E4
:4007C0007D0583F8D4526FF07D0583F8D5524FF0330583F8D7524FF0180583F8D8526FF0220583F8DA524FF07D0583F8DC526FF07D0583F8DD524FF0430583F8DF526FF083
:40080000180583F8E2524FF0330583F8C29283F8C50283F8C74283F8CA6283F8CC9283F8CD0283F8D10283F8D34283F8D66283F8D90283F8DB4283F8DE6283F8E07283F894
:40084000E10283F8E3524FF0280583F8E4524FF03E0583F8E9526FF0160583F8E6524FF07D0583F8E8524FF0130583F8EB524FF0070583F8EC524FF0790583F8ED524FF024
:40088000490583F8EF524FF0180583F8F0524FF06A0583F8F3524FF0040583F8F4524FF06B0583F8F5524FF00A0583F8F6524FF06C0583F8F7524FF0040583F8F8524FF05C
:4008C0007D0583F8F9526FF00B0583F8FA524FF06E0583F8FB524FF00F0583F8FC526FF01F0583F8FE526FF0020583F803534FF0150583F804534FF06F0583F806536FF04E
:40090000080583F8E50283F8E74283F8EE6283F8F1A283F8FF4283F800E383F8014383F802C383F8050383F807534FF0070583F808534FF0370583F809534FF06F0583F8B9
:400940000C536FF0020583F80D534FF0150583F80E536FF0740583F811536FF05B0583F812534FF03B0583F813534FF0130583F815534FF01B0583F816534FF07C0583F834
:4009800017534FF0020583F818534FF06A0583F819539DF8085083F80B0383F81A534FF03B0583F81B534FF0020583F81C534FF0130583F81D534FF07C0583F81F534FF0E8
:4009C000020583F820534FF06A0583F821534FF0040583F822534FF03C0583F825534FF0180583F826534FF06F0583F80F4383F810E383F8140383F81E4383F8234383F8B2
:400A000024E383F8270383F828536FF01F0583F82A536FF05B0583F82B536FF0220583F82C534FF01F0583F834534FF0600583F82D534FF0140583F82E534FF0610583F8E9
:400A40002F534FF0620583F831534FF00F0583F832536FF02F0583F833534FF0700583F835536FF00D0583F837534FF01E0583F838534FF0300583F839534FF02C0583F86D
:400A80003A534FF0130583F83B534FF0330583F83C534FF0600583F83D534FF0FF3583F83E534FF0150583F840534FF0070583F842534FF0300583F843534FF0130583F881
:400AC00045534FF0410583F846534FF00A0583F848536FF01F0583F84A536FF0580583F8309383F8369383F83F2383F8412383F8472383F84B5383F84C639DF80C5083F838
:400B0000691383F84D534FF0650583F84E536FF03E0583F852534FF0250583F850536FF05C0583F851536FF0060583F853534FF01E0583F854534FF0610583F86B1383F809
:400B400055534FF030016FF02F0583F86D1383F866536FF07E016FF01F0583F8591383F86A5383F85D1383F861134FF004054FF07B0183F84F0383F8569383F8574383F87D
:400B800058A383F85A6383F85B4383F85CA383F85E6383F85F4383F860A383F8626383F8634383F864A383F86C0383F8651383F8711383F87A534FF0070583F88A534FF0AF
:400BC00030056FF0240183F88B534FF0130583F86F1383F88D536FF039014FF06A0583F8701383F891534FF00C016FF01F0583F8721383F87D4383F8804383F8814383F88E
:400C000094536FF05C014FF060044FF06B0583F8751383F8834383F895536FF026014FF005044FF0040583F8761383F8844383F896534FF060014FF018046FF0160583F868
:400C4000771383F8864383F897534FF01C014FF015046FF027054FF0EE0883F8688383F8748383F8781383F87C8383F87EE383F882E383F8852383F8872383F8884383F8B0
:400C8000892383F8908383F879536FF0710583F87F536FF0760583F88E536FF0720583F893536FF05E0583F898534FF0570583F89A534FF00C0583F89C536FF0020583F85E
:400CC0009D534FF01E0583F89E534FF0650583F8A0534FF0300583F8A1534FF0130583F8A3534FF06A0583F89F2383F8A55383F8B1234FF06B054FF01E0283F8A75383F8C9
:400D0000B2234FF004056FF0240283F8A85383F8B3234FF06D056FF0390283F8A95383F8B4234FF06E054FF07B0283F8AB5383F8B5234FF013054FF07D0283F8AD5383F8F1
:400D4000B7234FF00A056FF0590283F8990383F8B0534FF0FF3083F89B234FF03C056FF0500283F8A20383F8AAB383F8ACB383F8B69383F8B8B383F8A42383F8C1534FF098
:400D80007E0583F8C25383F8C7536FF0180583F8CC534FF07E0583F8CD534FF03C0583F8CF5383F8D0534FF07E0583F8D1536FF0240583F8D2536FF07E0583F8D3534FF012
:400DC000420583F8D4534FF03C0583F8D5534FF07E056FF05A0283F8D6536FF0240583F8AF2383F8D8534FF07A024FF0100583F8B92383F8D9536FF068024FF0380583F87E
:400E0000AE2383F8DA534FF007024FF07C0583F8BC2383F8DB534FF013024FF03A0583F8BD2383F8BB536FF068026FF0660583F8BAB383F8BE2383F8C08383F8C30383F827
:400E4000C40383F8C80383F8C90383F8CE0383F8D70383F8C55383F8C6534FF0240583F8CA5383F8CB534FF03F0583F8E1534FF0030583F8EA5383F8EB5383F8EC5383F89E
:400E8000ED534FF03F0583F8F05383F8F9534FF0FF3583F8FC539DF80850039883F801544FF07E0583F807544FF0420583F8DC0383F8E7B383F8E8B383F8E9B383F8F173BC
:400EC00083F8F27383F8F37383F8F47383F8F57383F8F67383F8F77383F8F87383F8FA9383F8FB9383F8FF0383F8030483F8085483F809544FF0620583F80A5483F80B54A5
:400F000083F80C544FF07F0583F8DF5383F8E3534FF0620583F80D544FF07D0583F81E544FF0410583F820544FF07D0583F821544FF0050583F822544FF07D0583F8235473
:400F400083F824546FF0390583F829544FF0440583F82A544FF06C0583F82B544FF0280583F82C544FF0380583F82D544FF0FF3583F8305483F8395483F83C546FF00805EE
:400F800083F83E544FF0100583F83F544FF0140583F840546FF0080583F8415483F842544FF0040583F8435483F844544FF07C0583F847544FF04405834683F848544FF0E4
:400FC000FF306FF03D0583F8100483F8190483F81C0483F849B483F8275483F8285483F84A5483F84B5483F84C5483F84D544FF0FF3583F8505483F8595483F85C544FF06C
:40100000280583F860546FF0060583F8675483F86D544FF0FF3583F8705483F8795483F87C544FF0300583F881546FF0080583F887544FF0040583F888546FF0180583F817
:4010400089546FF07B0583F88C546FF0100583F85E546FF0170583F8615483F862544FF02F0583F8635483F864546FF07A0583F8685483F88A5483F88B546FF03A0583F823
:401080005F7483F8807483F8827483F8695483F86A5483F86B5483F86C546FF0410583F87E5483F8835483F884546FF00B0583F88D544FF0FF3583F8905483F8995483F880
:4010C0009C544FF07F0583F89F544FF03F0583F8A1544FF07F0583F8A3546FF0100583F8A7544FF0280583F8A8546FF0100583F8A9546FF01F0583F8AB544FF0600583F8D2
:40110000AC544FF06F0583F8AD544FF0FF355F4683F8B05483F8B95483F8BC544FF0040583F8BFB4DDF808B083F8C37483F8C1B483F8D0B483F8D15483F8D25483F8D3548F
:4011400083F8D45483F8D55483F8D65483F8D7546FF03F0583F8C75483F8C95483F8CA5483F8CB5483F8CC5483F8CD544FF0040583F8D8544FF0100583F8DA5483F8DB540C
:401180004FF0FF3583F8DC546FF0060583F8DD546FF07E0583F8DE546FF0740583F8E0546FF0660583F8EA546FF0070583F8EB544FF0250583F8ED5483F8EE546FF00B05EC
:4011C00083F8EF544FF0140583F8F5544FF0370583F8F7544FF0360583F8F8546FF0460583F8DF546FF0750583F8E6546FF0640583F8E9546FF0190583F8EC544FF017059A
:4012000083F8F4544FF0260583F8F9546FF0380583F8FA546FF0650583F8D9B48DF8F1548DF8F2548DF8F7548DF8F8546FF005058DF8F3548DF8F5544FF034058DF80055F8
:401240008DF801558DF802558DF806556FF0200583F8FB5483F8015583F803556FF03F0583F80C7583F8185583F8195583F81A553D464FF07C0783F80A754FF0440783F847
:4012800010B583F80B755F466FF07B0B83F811B54FF05C0B83F8FEB44FF0110B83F804B54FF01F0B83F805B54FF01B0B83F807B54FF0190B83F808B56FF0260B83F809B5A3
:4012C0004FF0500B83F8FCB483F8FDB46FF0270B83F8FFB483F800B54FF0120B83F8125583F8155583F8165583F81B5583F81C7583F806B583F821756FF03D0783F81E7516
:4013000083F81F7583F820756FF007076FF07F0B83F824756FF03F0786264FF0820C83F813C583F814C583F81DC583F80D6583F80E6583F80F6583F817B583F823B583F823
:40134000225583F8257583F8267583F827556FF041038DF840356FF00F038DF83A354FF01003FE214FF0C00A8DF838158DF83E158DF843158DF846158DF839B58DF83FB505
:401380008DF841658DF842658DF844658DF845658DF847658DF848658DF849658DF83BA58DF84A358DF84B358DF84C358DF84D358DF84E358DF84F354FF048038DF85335C0
:4013C0008DF854354FF078038DF855356FF063038DF856358DF85B356FF06F0318248DF869C58DF861158DF868158DF83CA58DF83DA58DF859A58DF85CB58DF85DB58DF86D
:401400005EA58DF85FA58DF860A58DF865658DF866658DF867658DF86A658DF86B658DF86C658DF86D658DF850458DF851458DF852458DF857356FF04F038DF858358DF8A6
:401440005A356FF011038DF862356FF06D038DF863358DF864354FF07C038DF86E358DF873358DF87A356FF06F038DF883356FF063038DF884354FF010038DF88D356FF0F4
:4014800035038DF87D354FF07A038DF87F356FF03D038DF86FC58DF875C58DF87BC58DF874158DF876158DF880158DF882158DF886158DF888158DF88B158DF88C158DF886
:4014C00077A58DF878A58DF879A58DF870658DF871658DF872658DF881658DF887A58DF87C356FF03B038DF87E356FF07B038DF885354FF002038DF889358DF88A354FF02D
:4015000010038DF89D356FF03D038DF894358DF895358DF896356FF011038DF89B356FF06D038DF8A1358DF8A2356FF011038DF8A3356FF069034FF0300E8DF88EE58DF8D2
:401540008FE58DF890E58DF891E58DF8ADE58DF8AEE58DF8AFE58DF892C58DF893C58DF898C58DF899C58DF89AC58DF8A4C58DF8A9C58DF8AAC58DF8ABC58DF897158DF8D8
:40158000AC158DF89E658DF89F658DF8B0158DF8A0354FF038038DF89C358DF8A6358DF8A7354FF044038DF8A5358DF8A8354FF002038DF8B1356FF00F038DF8B3354FF011
:4015C0007C038DF8CE356FF039038DF8CF354FF01E038DF8B2354FF006038DF8DBC58DF8B5158DF8D6158DF8D7158DF8DA158DF8DF158DF8BA358DF8C1A58DF8C8458DF8F4
:40160000C9458DF8CA458DF8CB458DF8CD458DF8D1458DF8D3458DF8E3458DF8B4B58DF8DC658DF8DD658DF8DE658DF8E4458DF8BB354FF060038DF8BF358DF8C0354FF0BD
:401640000C038DF8D0354FF008038DF8E0358DF8E1358DF8E2354FF002038DF8E7358DF8ED354FF01E038DF8EE354FF006038DF8EF358DF8F0356FF07B038DF8F2356FF09F
:401680003B038DF8F3358DF8F4354FF006038DF8FB358DF8FC354FF002038DF8E6158DF8E8158DF8EB158DF8EC158DF8F1158DF8F5158DF8F8158DF8FA158DF8FD158DF831
:4016C000E5458DF8F9B58DF8E9A58DF8EAA58DF8FEA58DF8FFA58DF800A68DF801168DF805364FF004038DF8F6358DF8F7354FF002038DF806364FF006038DF807368DF853
:4017000008368DF809364FF07C038DF80A364FF044038DF80B364FF006038DF813368DF814368DF815364FF044038DF816368DF818368DF819368DF81B364FF00C038DF87C
:4017400026364FF06C03A8228DF802C68DF811C68DF803168DF804168DF80C168DF80F168DF810168DF812168DF817168DF81A168DF81C268DF81D268DF80D668DF80E661F
:401780008DF827468DF81E268DF823364FF05A038DF824364FF006038DF83D364FF06C038DF830364FF012038DF82D364FF05A038DF832364FF048038DF838368DF8393606
:4017C0004FF012038DF83B366FF06F038DF83E364FF012038DF840368DF844366FF07B038DF846364FF04E038DF82A368DF848364FF07E038DF82B368DF842364FF05403F8
:401800004FF066088DF829E68DF843E68DF847E68DF81F268DF820268DF821268DF822268DF828268DF831268DF83C268DF83F268DF845268DF82E468DF83A468DF84A4656
:401840008DF82F868DF834364FF024038DF835366FF06F038DF852364FF054038DF853364FF078038DF854364FF048038DF856364FF078038DF857364FF06C038DF8583676
:401880004FF012038DF85B364FF06C038DF85D364FF054038DF860366FF06F038DF861364FF04E034FF072098DF84C268DF84D268DF84E268DF84F268DF850268DF8512637
:4018C0008DF855268DF85A268DF862268DF866268DF833868DF836868DF84B868DF849968DF859968DF85C468DF85E968DF85F868DF863968DF865468DF867E68DF868366B
:401900004FF07E038DF869364FF012038DF86B364FF02A038DF864364FF06C038DF86E364FF054038DF871364FF05A038DF873364FF07E038DF876364FF04E038DF87836A7
:401940004FF02A038DF87C364FF04E038DF882364FF07E038DF883364FF06C038DF885364FF054038DF887364FF04E038DF888366FF063038DF87EE68DF881E68DF886E6D5
:401980008DF86F268DF872268DF87A268DF880268DF86C468DF86D868DF870968DF874868DF875468DF877468DF879968DF87B968DF87D468DF87F868DF889366FF027039C
:4019C0008DF8A5364FF048038DF891364FF054038DF892364FF07E038DF893366FF06F038DF896364FF054038DF897364FF078038DF898364FF06C038DF89B364FF02A0339
:401A00008DF89C364FF05A038DF89E366FF07B038DF8A0364FF02A038DF8A3364FF04E038DF8A8364FF012038DF8A9364FF04E038DF89DE68DF8A1E68DF88A268DF88B269E
:401A40008DF88C268DF88D268DF88E268DF88F268DF890268DF895268DF89A268DF89F268DF8A4268DF8A6268DF8AA268DF894468DF899868DF8A2968DF8AD268DF8AF3603
:401A80004FF012038DF8B0364FF06C038DF8B2366FF01B038DF8AB366FF05D038DF8AC364FF02A038DF8B3364FF054038DF8B4368DF8B5366FF07B038DF8B8364FF02A0338
:401AC0008DF8BB366FF063038DF8BE364FF02A038DF8C1364FF00C038DF8C4364FF054038DF8C5364FF048038DF8C6364FF05A038DF8C7364FF078038DF8C8364FF05A0365
:401B00008DF8B9E68DF8B1268DF8B7268DF8BC268DF8BF268DF8C3268DF8CC268DF8B6968DF8BA968DF8C0968DF8C2468DF8C9968DF8CA468DF8CB868DF8CD868DF8CE463F
:401B40008DF8CF364FF054038DF8D0364FF06C038DF8D3366FF021038DF8BD364FF02A038DF8D6368DF8DB364FF04E038DF8DF364FF07E038DF8E0364FF012038DF8E2367A
:401B80004FF06C038DF8E5364FF04E038DF8EC364FF00C038DF8ED364FF06C038DF8F1364FF04E038DF8DEE68DF8EBE68DF8D4268DF8D9268DF8DD268DF8E6268DF8EA2670
:401BC0008DF8D1868DF8D2968DF8D5968DF8D8968DF8DA968DF8DC468DF8E3468DF8E4868DF8E8868DF8E9468DF8EE868DF8EF468DF8F2E68DF8F3364FF024038DF8F43686
:401C00004FF02A038DF8F7364FF01E038DF8FC364FF054038DF8FD364FF00C038DF8FF366FF063038DF801374FF024038DF803374FF054038DF804378DF805374FF0120307
:401C40008DF806374FF078038DF809374FF00C038DF80A374FF042038DF808374FF03C038DF8F9E68DF8F5268DF8FB268DF802278DF807278DF80C278DF80E278DF80F2711
:401C80008DF810278DF811278DF812278DF813278DF814278DF8F6968DF8F8468DF8FA868DF8FE868DF800478DF80B376FF051038DF80D374FF0FF3301208DF8153700F02A
:401CC0005FFE084B084A04A8009208495A1C00F00FF8002000F054FE00200DF5805D05B0BDE8F08FACB1FF1FCC80FF1FC0B1FF1F2DE9F04F9DB00D46049100210C460992A0
:401D00008346202214A80893079101F04DF828464FF48072214601F047F84FF4007A06940BEB0A035B781BF80A0043EA002000B282B2130BC4B2013BC2F30325C2F30B014E
:401D400004F00F00C2F303120E2B35D8DFE813F019000F00FD00F100E10011010901CE00BD001B004800B5004C0021001901079A1CA800EB42030F2A23F820AC134640F00B
:401D80001C818A46CCE706910AF1020A1FFA8AFAC6E79E2C00F06881A12C40F0EF801CAB1D4415F8300C00F0D7FA0028ECD10AF1020A1FFA8AFAE7E7002D40F0DF80E02CBB
:401DC00000F06081EE2C40F0D980079B13B1013BDBB207931CAA02EB430333F820AC9FE79DF840A08A449BE7002860D01CAB1D4415F8306C1A44382E12F8309C4FF0000366
:401E00004FF0000440F2DE80CDE90234069B4FF0000C0BEB0304C6F17808A6F1380ECDF838A00594CDF83CB00599A8F1200411F8012BC8F1200302FA04FB22FA03F322FA6A
:401E40000EF400944BEA030B002402FA08FA0CEB0903049A019403F01F0302EBC303DDE9006746EA0A0647EA0B07D3E90045059105EA070204EA06010CF1010C74407D40BA
:401E80006045DDE9026741EA060142EA0702CDE90212C3E90045C7D1CDE90CABDDF838A0DDF83CB00B46134314BF01200020269A01238DF84F00137066E700F0C5FD1CABFD
:401EC0001D44204005F8300C5EE7002856D11CAB1D441A4415F8301C12F8303C99423FF453AF0AF1020A1FFA8AFA4DE70E2845D8DFE810F00501390144010E01190124012A
:401F0000E600F4004400440044004400440044002C0198BB1CAB1D441A4415F8301C12F8303C99427FF430AF0AF1020A1FFA8AFA2AE71CAB1D4415F8303CA3423FF424AFEC
:401F40000AF1020A1FFA8AFA1EE71CAB1D4415F8303CA3427FF418AF0AF1020A1FFA8AFA12E71CAB1D4415F8300C204405F8300C0AE71CAB1D4405F8304C05E71DB0BDE85D
:401F8000F08F1E2C00F03C815ED9332C00F001817FD9552C00F02581652CEFD100221346069C0BEB0301085D01321CA91944D3B29D4201F8300CF4D2E6E60133DBB207938C
:401FC0008A46ADE625461C46CE46A046A946069BC6F138060BEB03070021CDF808A0CDF814B017F8012BA6F12004C6F1200302FA04FB22FA03F34BEA030B01EB0E0C049B56
:402000000CF01F0C02FA06FA03EBCC0C0131DCE9002381420AEA02040BEA030582EA0A0283EA0B0348EA040849EA0509CCE90023D7D1CDE90AAB4146DDF808A0DDF814B0E9
:40204000CDE902894A462DE70A2C00F0C3802DD9152C00F0DE80182C90D11CAB1D4415F8303C099A13708FE61CAB1D4415F8300C00F072F900283FF487AE0AF1020A1FFA20
:402080008AFA81E629464FF48072049800F08CFE7AE6292C7FF472AF1CAB1D4415F8303C03F00F0303EB830306936DE6072C7FF465AF089B1CAA1B78154405F8303C63E66B
:4020C0001CAB1D4415F8303C03F001038DF84F3015F8303C5B0805F8303C55E61CAB1D441A4412F8303C15F8302C9B1A83F48072C2F3002205F8303C8DF84F2044E61CAB1C
:402100001A4412F8303C1CAA154405F8303C3BE61CAB1D441A4412F8303C15F8302C534005F8303C30E61CAB1D441A4412F8303C15F8302C134405F8303C25E61CAB1A4456
:402140001D4412F8302C15F8303CCEE71CAB1D4415F8303CDB098DF84F3015F8303C5B0005F8303C10E61CAB1D441A4412F8303C15F8302C134305F8303C05E61CAB1D4477
:402180001A4412F8303C15F8302C134005F8303CFAE51CAB1D4415F8301C214B069EA3FB01231F4ADB08DCB2A2FB04521D4DD208A5FB017503EB830302EB82020BEB0600EC
:4021C000A1EB43036D09A4EB42020BF8065083704270D9E500F0E0F81CAB1D4405F8300CD2E500221346069C1CA91944013211F8300C0BEB0301D3B29D420855F4D2C3E548
:402200001CAB1D4415F8303C069A1A4493B20693BAE51CAB1D4415F8303C089A1370B3E5CDCCCCCC1F85EB512DE9F04F85B003900F4602921E46DDF838A000F089FCC0F5D2
:402240004970013080B210F0070803D1B0F5407F03D310D005B0BDE8F08F3A78C308D2000AEBC31302F1804202F5F0429BB2938005B0BDE8F08F029B1B78002BEAD0039B88
:40228000187800F095FA029B1B78002B47D04FF0010CE146A6F13803C64601934FF03F08A8F12002C8F1200309FA02F529FA03F30CF17F021D4309FA08F452440AEB0E060C
:4022C000019FF923002110E01F2B30D8D7E9000129402040014314BF012100210133DBB206F5807602F580720837CEEB060BCEEB0200282B02F8801C86F880100BF80C1066
:4023000000F80C10E0D10EF1020EBEF1800F08F1FF380CF1020CC3D1029A00231370039B0121187805B0BDE8F04F00F023BA0021D4E700BF03780BB1013BDBB203700B7833
:402340000BB1013BDBB20B70007808B900F082BB012000F07FBB00BF70B50E4E345C012004F0030506EB85052B6904F00C0498473444012000F0CAFA236A984704462B6936
:4023800000209847012000F0C1FA201C18BF012070BD00BFD080FF1F2DE9F047144F154E06F1100906F1040816F801AB012017F80A4004F0030507EB85052B6904F00C045A
:4023C00098473C44012000F0A1FA236A984704462B6900209847012000F098FA24B9B045E2D14E45DED1DAE75046BDE8F08700BFD080FF1F0081FF1FF8B572B6794E7A4A80
:4024000035461378002443F00403137004EB4403AA8856F813000134002100F0C5FC092C05F10605F2D1714E714F002556F8043F13F0FF0E23F0FF0413D005F110530EF156
:40244000FF3E03F129005FFA8EFE7044283340005B001A785978023398421155F9D101357544BE42E2D140F22126624962480B78624A43F002030B700378A1F5863143F084
:40248000020303701378413943F0400313700A785B4842F010020A7000245A4A5A4B04605A4C03CB106051602278594D03CB594F2860696042F0080203CB61252270564B93
:4024C000564A3D701578A7F5F06718605960DFF894C10723DFF890E13B8018238CF80030A4F52774AEF800601D2626704C49022687F880624B4B4FF0402408264A48F32752
:402500002670032684240F7005211670EDB204701E46464C197003E000F00AFC013C04D033784FF4F0709B06F6D540F6265641F251203A4C3E4A02213E4B257011701A781B
:402540003D4D3E493E4BA4F27644D2B22A70268008801C784FF4F0701D4604F0010400F0E7FB182601E0032C0DD02B784FF4F07003F0010343EA440400F0DAFB013E04F0EB
:402580000304F0D1FEE72F4B2F48304F304D4FF4807407221C8000211A7048262D4A022439702E70197004701378012443F003032949137080F8FF470B7800F5C350DBB2D7
:4025C00026490D3005F5C35503F00707244C1B090770023A0B700E3544260FCA2E7007C42380F8BDBC2D0000E8460040FCFFFF474C0000480350014013500140A04300408C
:402600000076004012510040C002004822430040225100400048004032510040984600400A4300400843004009430040A0860100004200400B010049A1460040204200400B
:402640002542004004400040014000400640004008400040A2430040CF0100496F580040B0430040824000408440004008B500F06FFB03680C2B00D0FEE7FEE780B5134F38
:40268000F7B1134E002556F80C0C56F8084C56F8102C03463CB1043A52F8041F43F8041B191AA142F8D156F8040C1A4620B142F8045BD11A8842FAD1013F06F11006E2D198
:4026C00000F04CFBFDF7FCFCFEE700BF01000000282E000008B5114A114B12491A600B68114A43F4007311480B600023032B94BF50F823100E490133302B42F8041FF5D10F
:402700000C4B0D4918780D4A0D4B08701A60FFF773FEBDE8084000F015B800BF0004FA050CED00E014ED00E0FC7FFF1F000000006D260000BC760040C080FF1F0080FF1F94
:4027400008ED00E07F200346074910B4074A802408704C70013BDBB202F80839002BF9D1034A137010BC70471081FF1FF87B004000780040172817D869B90C4900010B4602
:40278000425C034402F0DF0242541A78002042F001021A707047054900010B46425C034442F020024254F0E7012070471070004017280BD8064A0301995C002001F0FE014A
:4027C0009954995C01F0DF0199547047012070471070004017280BD8064A0001835C490003F0F10301F00E011943815400207047012070471070004041F6FF73994208BF7D
:402800004FF400519A4208BF4FF40052172808D8C00000F1804303F5EC4399800020DA8070470120704700BF172805D8034B00010344597200207047012070471070004045
:4028400070B417289DF80C609DF8105018D8C00001F07F0103F00F0300F1804441EAC21143EA061304F5EC4405F00F050022C9B2DBB221706370A570E270104670BC704780
:40288000012070BC704700BF10B500F059FA0B4B5A78182A04D8FF2400F056FA204610BD1C78013AE10001F1804101F5F04109785A70197000F048FA204610BD1081FF1FFF
:4028C00010F0800F11D130B411F470450AD1C40004F1804404F5F0442180A270E370284630BC7047012030BC70470120704700BF030608D4C00000F1804303F5F043998035
:402900000020DA8070470120704700BFB0F5004F70B506461AD904460D4DA4F50044686800F006FAB4F5004FF7D8A6F50043013B23F4FF4323F07F03A6F50046F61AA86866
:4029400000FB06F0BDE8704000F0F2B9004DF6E71881FF1F70B4064B064E1D6806490223E024064A336068640C7070BC1360704708ED00E080E100E001E400E000E100E0B2
:40298000044A4000137800F0020003F0FD03184310707047205100400B4A0C4B10B5B821FF2411701C7000F0CBF9094A137843F00303137000F0C8F9064B074A1C701378A4
:4029C00043F00103137010BD2B6400400B6400409B6400404B6400407B640040024A137843F00103137070477B64004038B5104C2378B3B90F4A104BB821FF2511701D700F
:402A000000F09EF90D4A137843F00303137000F09BF90B4B0B4A1D70137801210B4313702170084A137843F00103137038BD00BFAEB1FF1F2B6400400B6400409B64004021
:402A40004B6400407B640040014B1878704700BF0B640040044A00F00100137803F0FE0318431070704700BF20510040144A1378FBB9F0B4134914480B78144E03F0C003F3
:402A800043F00A030B700378114F124D124C43F001030370A72101232820317039702B7020701370074A137843F080031370F0BC7047044A137843F080031370704700BFED
:402AC000AFB1FF1F7E6400409E6400400E6400404E6400402E6400403E640040164A13781BBB40F22531F0B4144D154C2B78154803F0C00343F021032B702378124F43F016
:402B0000010323700378114E43F0010303702625012339803180A4F8BC531370074A137843F080031370F0BC7047044A137843F080031370704700BFB0B1FF1F7D640040D3
:402B40009C6400409D6400401868004098680040024B034A1278188880B27047B86800401C640040124A1378E3B9F0B4114912480B78124F03F0C00343F008030B70017860
:402B80000F4E104D0623012441F0010101703B7033702B701470074A137843F080031370F0BC7047034A137843F0800313707047B1B1FF1F7A6400409A6400400A64004032
:402BC0004A6400402A640040124A1378E3B9F0B4114912480B78124F03F0C00343F008030B7001780F4E104D1123012441F0010101703B7033702B701470074A137843F03F
:402C000080031370F0BC7047034A137843F0800313707047B2B1FF1F7C6400409F6400400F6400404F6400402F640040F0B516461F4683B000250B4C2B460A460195014653
:402C4000009528462570FFF7FBFD3A4631462078FFF7D2FD20780221FFF7BCFD207803B0F0BD00BF2881FF1F70B4064B064E1D6806490123C024064A336028640C7070BCD6
:402C80001360704708ED00E080E100E000E400E000E100E0014B1878C009704731510040024B187800F00100704700BF31510040024B1878C0F3C000704700BF31510040A3
:402CC000024B1878C0F34000704700BF31510040044A8000137800F0040003F0FB0318431070704730510040044A0001137800F0100003F0EF031843107070473051004029
:402D0000044A4001137800F0200003F0DF0318431070704730510040044A8001137800F0400003F0BF03184310707047305100400230800803D000BF01380046FCD1704760
:402D4000EFF3108072B6704780F31088704700BF014B1868704700BF8C81FF1F0E4B70B51E460E4C0025E41AA410A54204D056F8253098470135F8E700F03CF8084B094CE3
:402D80001E46E41AA4100025A54204D056F8253098470135F8E770BD002E0000002E0000002E0000082E000003460244934202D003F8011BFAE77047000000000051004023
:402DC0001000405100403000C05100401000F0510040100000000140001000140140000800400140000A004C014000020050014020004300F8B500BFF8BC08BC9E46704795
:402E00004D000000D5260000F8B500BFF8BC08BC9E46704729000000282E0000C880FF1FC80000003031000000000000010000000D00010204050608090A0C0E03070B0F44
:402E4000D12C0000E92C0000012D0000192D0000952C0000A12C0000C12C0000B12C00000102030C0405060D0708090E0A000B0F7F800000010000004200000000803B7F80
:402E800077FE00004900E203FF0000000000000000000000000000000000000000000000000000000000000000000000F22D00000000000000000000000000000000000051
:402EC00000000000000000000000000000000000000000000000000000000000000000000000000000000000000000002C81FF1F0000000000000000000000000000000007
:402F00000000000000000000000000000000000000000000000000000000000000000000000000000000000000000000000000000000000000000000000000000000000091
:402F40000000000000000000000000000000000000000000000000000000000000000000000000000000000000000000000000000000000000000000000000000000000051
:402F80000000000000000000000000000000000000000000000000000000000000000000000000000000000000000000000000000000000000000000000000000000000011
:402FC00000000000000000000000000000000000000000000000000000000000000000000000000000000000000000000000000000000000000000000000000000000000D1
:020000040003F7
:0200000480007A
:40000000025200400101014001090140350A01401B0B0140340C0140190D01404D0E01402B0F0140054001400141014001420140014301400144014008450140014601400A
:400040000247014003480140055001400251014010101118E280B204060107020E020F011303150225012601320234013503402041064702481149FF4AFF4BFF4DA04F0430
:4000800050185280580859085A085B085F01604062C06440654066C068C06AC06CC06EC0C004C9FFCAFFCBFFCC02CEF0D201DA0CDB04DD99DF01E248E3A1E8F0EAF0ECF06E
:4000C000EEF00044102019081A042004290830083101384440044701482850086F0371017B017F029040A301C005C404CA02CC03CE0AD084D204DE184060410249FF4AFFF7
:400100004BFF4DA04F04501852805A085B045F01604062C06440654066C068C06AC06CC06EC086019202A601B001B402C020C106C501C702C811C9FFCAFFCBFFCDAFCE0F11
:40014000CF04D018D280D808DA08DB08DF01E040E2C0E440E540E6C0E8C0EAC0ECC0EEC000040902102018441B104004460448284F2050085204710276807B037F02944073
:400180009E80A301B010C004C208C404D024D224DE180A030B010C04100413021E0422012301260230033204330237013E0440304106450146054702481749FF4AFF4BFFC1
:4001C0004DA04F0450185280580459045A045B045F01604062C06440654066C068C06AC06CC06EC083068D089301970899049A01AA01AF0CB201B30CB502B701C020C1055C
:40020000C602C805C9FFCAFFCBFFCDA0CF04D018D804D904DA04DB04DF01E040E2C0E440E540E6C0E8C0EAC0ECC0EEC0005009400A800F0810A0172019081B011C20201029
:40024000224023012540262827202B802E8031013628370138103F814010472048A84F885008538057406F01710185088B01C003C249C44CCA11CCE1CE94D022D214E28098
:40028000E40837803D108910CC20CE209F809F809F808680528264049804A280B004D405D801EC01A602B202EC0423809F80C840000101010C010D010E01000D10020000C9
:4002C000000B0B0000000000001F1F001C0000008BFF7400000000000000000000000000000000000000000000000000000000000000000000000000000000000000000090
:4003000000000000000000000000000000000000000000000000000000000000000000000000000000000000000000000000000000000000000000000000000000000000BD
:40034000000000000000000000000000000000000000000000000000000000000000000000000000000000000000000000000000000000000000000000000000000000007D
:40038000000000000000000000000000000000000000000000000000000000000000000000000000000000000000000000000000000000000000000000000000000000003D
:4003C00000000000000000000000000000000000000000000000000000000000000000000000000000000000000000000000000000000000000000000000000000000000FD
:0200000490006A
:0400000000004005B7
:0200000490105A
:04000000BC90ACAF55
:0200000490303A
:02000000E19687
:0200000490402A
:4000000000000000000000000000000000000000000000000000000000000000000000000000000000000000000000000000000000000000000000000000000000000000C0
:400040000000000000000000000000000000000000000000000000000000000000000000000000000000000000000000000000000000000000000000000000000000000080
:400080000000000000000000000000000000000000000000000000000000000000000000000000000000000000000000000000000000000000000000000000000000000040
:4000C0000000000000000000000000000000000000000000000000000000000000000000000000000000000000000000000000000000000000000000000000000000000000
:0200000490501A
:0C00000000012E16106900012E2BF1FFEC
:00000001FF